:1000000012C02CC02BC02AC029C028C027C026C0BF
:100010003DC024C023C022C021C020C01FC01EC0BC
:100020001DC01CC01BC011241FBECFE5D4E0DEBF25
:10003000CDBF10E0A0E6B0E0ECE7F1E002C0059033
:100040000D92A236B107D9F720E0A2E6B0E001C0D8
:100050001D92A436B207E1F734D08EC0D1CF8FEF16
:1000600085BB83ED90E30197F1F700C0000015BA5E
:1000700008958FEF85BB2FEB84ED91E021508040F8
:100080009040E1F700C0000015BA08951F920F924A
:100090000FB60F9211248F939F93809162009091DD
:1000A0006300019690936300809362008CEF8DBD96
:1000B0008FE28CBD9F918F910F900FBE0F901F907C
:1000C00018958FEF84BB17BA88BBC9DF8CEF8DBD45
:1000D0008FE28CBD1FBC85E08EBD84E089BF789423
:1000E00000ED17E0B09912C083ED90E30197F1F7AE
:1000F00000C00000B0990AC0B2DF80916200909108
:10010000630088969093610080936000B19913C05A
:1001100083ED90E30197F1F700C00000B1990BC0A7
:100120009EDF80916200909163008F5B9F4F909360
:1001300061008093600020916200309163008091A3
:100140006000909161002817390709F492DF8091CF
:100150006200909163002091600030916100821BE9
:10016000930B893592400CF4BDCFF894C02FD12F5A
:0C01700080DF2197E9F7B6CFF894FFCFAD
:02017C00FFFF83
:00000001FF
